:020000040800F2
:1000000000800020AD290008B1050008B3050008F4
:10001000B5050008B7050008B90500080000000094
:10002000000000000000000000000000BB05000808
:10003000BD05000800000000BF050008C10500085C
:10004000FD290008FD290008FD290008FD290008F8
:10005000FD290008FD290008FD290008FD290008E8
:10006000FD290008FD290008FD290008FD290008D8
:10007000FD290008FD290008FD290008FD290008C8
:10008000FD290008FD290008FD290008FD290008B8
:1000900000000000FD290008FD290008FD290008D6
:1000A000FD290008FD290008FD290008FD29000898
:1000B000FD290008FD290008FD290008FD29000888
:1000C000FD290008FD290008FD290008FD29000878
:1000D000FD290008FD290008FD290008FD29000868
:1000E000FD290008FD290008FD290008FD29000858
:1000F000FD2900080000000000000000FD290008A4
:10010000FD290008FD290008FD290008FD29000837
:10011000FD290008FD290008FD290008FD29000827
:10012000FD290008FD290008FD290008FD29000817
:08013000FD290008FD2900086B
:1001400001F0FF01102A2BDB10F0070F08D010F888
:10015000013B013A8B422DD010F0070F42B3F6D18C
:10016000F0B441EA012141EA014122F007047FF0A5
:1001700000070023F0E80256083C85EA010586EAFC
:10018000010685FA47F5A3FA87F586FA47F6A5FA38
:1001900087F68EB9EED1F0BC01F0FF0102F0070244
:1001A00032B110F8013B013A83EA010313B1F8D1EF
:1001B0000020704701387047002D06BF35460338D0
:1001C000073815F0010F07D1013015F4807F02BF09
:1001D000013015F4C03F0130F0BC0138704700BF5A
:1001E00053B94AB9002908BF00281CBF4FF0FF319E
:1001F0004FF0FF3000F00CB8ADF1080C6DE904CE03
:1002000003F024FBDDF804E0DDE9022304B07047CD
:10021000704700BF0348044B834202D0034B03B135
:1002200018477047680000206800002000000000A8
:100230000548064B1B1AD90F01EBA301491002D048
:10024000034B03B118477047680000206800002086
:100250000000000010B5064C237843B9FFF7DAFF21
:10026000044B13B10448AFF300800123237010BD89
:100270006800002000000000083B000808B5054B9E
:100280001BB105490548AFF30080BDE80840FFF702
:10029000CFBF00BF000000006C000020083B00083A
:1002A00030B589B00024039404940594069407940F
:1002B0004FF0B043DA6C42F00202DA64DA6C02F01A
:1002C00002020292029ADA6C42F00102DA64DB6CFA
:1002D00003F001030193019B164D22464FF4805118
:1002E000284601F0C9F9C02303931223049305940F
:1002F00006940423079303A9284601F0EBF8F023A2
:10030000039302230493059406940D23079303A9F2
:100310004FF0904001F0DEF84FF480530393012337
:1003200004930594069403A9284601F0D3F809B074
:1003300030BD00BF0004004872B6FEE708B50F48A4
:100340000F4B03604FF482734360002383604FF4CC
:100350004072C260036143614FF480228261C361D5
:100360000362436283620722C2620363082343631A
:1003700001F066FA00B908BDFFF7DEFF700100204A
:100380000030014008B504481023036001F0FEFA74
:1003900000B908BDFFF7D0FF6401002000B58FB0A1
:1003A00000230A930B930C930D93079308930993DF
:1003B00000930193029303930493059306932748B4
:1003C0004FF080420260436083604FF0FF32C260B2
:1003D0000361836101F0D0FC002830D14FF48053D9
:1003E0000A930AA91D4801F00DFE50BB1B4801F0FD
:1003F000F3FC40BB00230793099307A9174801F0BA
:1004000081FE10BB602300930022019202920492AD
:100410006946124801F04CFDC8B9082269460F48E8
:1004200001F046FDA8B90C2269460C4801F040FDD8
:1004300088B90A4800F033F90FB05DF804FBFFF704
:100440007BFFFFF779FFFFF777FFFFF775FFFFF7F8
:1004500073FFFFF771FFFFF76FFF00BF1801002068
:1004600008B51548154B03604FF4E1334360002392
:100470008360C36003610C2242618361C3610362D4
:100480004362836202F08EF970B900210A4802F0DB
:1004900002FA58B90021084802F022FA40B9064889
:1004A00002F0DAF930B908BDFFF746FFFFF744FF65
:1004B000FFF742FFFFF740FF8400002000380140B3
:1004C00000B59BB04822002108A802F015FC0023CB
:1004D00002930393049305930693079315490A68BF
:1004E00022F4C06242F400720A600A6802F4C06238
:1004F0000192019A20220892012210921193B022B7
:100500001292139308A800F04FFA78B94F23029380
:10051000002303930493059306930793022102A8F3
:1005200000F074FD20B91BB05DF804FBFFF704FF79
:10053000FFF702FF0004005808B501F045F9FFF786
:10054000BFFFFFF7ADFEFFF7F9FEFFF71BFFFFF759
:1005500025FFFFF785FF002008BD000008B5FFF765
:10056000EBFF0B4802F076FA0A4C01224FF480515F
:10057000204601F081F8642001F04EF900224FF48A
:100580008051204601F078F8642001F045F9EBE74E
:100590003C3B00080004004810B514464FF0FF3300
:1005A00092B2024802F028F8204610BDD401002083
:1005B000FEE7FEE7FEE7FEE7FEE77047704770479D
:1005C00008B501F017F908BD7047000030B589B0D3
:1005D00000230393049305930693079302681D4B2E
:1005E0009A4201D009B030BD4FF0B0431A6E42F4C8
:1005F00080521A661A6E02F480520292029ADA6CE3
:1006000042F00102DA64DA6C02F001020192019A0E
:10061000DA6C42F00202DA64DB6C03F0020300934E
:10062000009B41F6020303930225049505240794D9
:1006300003A94FF0904000F04DFF0423039304956D
:10064000002305930693079403A9034800F042FF93
:10065000C8E700BF003001400004004882B04FF0FE
:10066000B0435A6E42F001025A665B6E03F001031A
:100670000193019B02B070470368B3F1804F00D033
:10068000704782B04FF0B0439A6D42F001029A6514
:100690009B6D03F001030193019B02B0704700B50D
:1006A00087B0002301930293039304930593036897
:1006B000B3F1804F02D007B05DF804FB4FF0B043B8
:1006C000DA6C42F00102DA64DB6C03F001030093A0
:1006D000009B0D230193022302930123059301A99B
:1006E0004FF0904000F0F6FEE5E7000010B596B040
:1006F0000446002111911291139114911591382201
:1007000003A802F0F9FA22681A4B9A4201D016B0F7
:1007100010BD012303934FF44033049303A800F06A
:10072000B7FD18BB4FF0B0431A6E42F480421A6610
:100730001A6E02F480420292029ADA6C42F00102CE
:10074000DA64DB6C03F001030193019B4FF4C06397
:1007500011930223129300231393149307231593E9
:1007600011A94FF0904000F0B5FED0E7FFF7E4FD8F
:10077000D8E700BF0038014030B589B004468C4648
:100780002A4B93E803000690ADF81C1003F1080211
:1007900092E803000490ADF8141001AD103393E813
:1007A000070085E80700BCF5007F07D0002314E0B0
:1007B00008AA02EB830353F81C5C1EE00023022B03
:1007C00008D808AA02EB430232F8082CA242EFD262
:1007D0000133F4E7002510E00133022B0CD808AAFE
:1007E00002EB430232F8102CA242F5D308AA02EB26
:1007F000830353F81C5C00E000250D4A136823F0C6
:1008000007032B43136001F001F80446084B1B68F3
:1008100003F00703AB4206D000F0F8FF001B0228EC
:10082000F4D9032000E0002009B030BD203B0008CF
:100830000040005810B5C0F303100C4B53F8204093
:100840004FF0B043D3F8083103F00F03084A52F8D1
:100850002330B4FBF3F400F01DFF0146054BA3FB6E
:100860000434A00CFFF788FF10BD00BF743B0008E4
:10087000D43B000883DE1B434FF0B0439968DB682C
:1008800003F0030311F00C010AD00C2906D004294F
:1008900047D008293BD00022104626E0012BF6D194
:1008A0004FF0B0431B6813F008030DD04FF0B04376
:1008B0001B6813F0080324D14FF0B042D2F8942003
:1008C0002E4A52F823200EE04FF0B042126812F088
:1008D000080F12D14FF0B043D3F89430C3F3032381
:1008E000264A52F82320D1B100204FF0B0439B6834
:1008F00003F00C030C2B1AD070474FF0B042126873
:10090000EEE74FF0B0431B68C3F30313D8E74FF093
:10091000B0431A6812F4801206D11948E5E7104670
:10092000E3E700221748E0E700221648DDE74FF032
:10093000B043DB6803F00303022B09D0032B08D17B
:100940004FF0B0431B6813F4801F15D10C4A00E030
:100950000C4A4FF0B041CB68C3F3062303FB02F20D
:10096000CB68C3F302130133B2FBF3F2C868400F44
:100970000130B2FBF0F0BFE7024AEAE7743B00083F
:100980000048E8010024F40008B5FFF775FF4FF0B8
:10099000B0439B68C3F30313024A52F82330B0FB01
:1009A000F3F008BDD43B0008002800F01183F8B52F
:1009B00004464FF0B0439D6805F00C05DE6806F074
:1009C0000306036813F0200F2AD0002D65D00C2DEC
:1009D00061D0236A002B00F0BF804FF0B042136853
:1009E00043F00103136000F011FF07464FF0B043DE
:1009F0001B6813F0020F00F0A7804FF0B0431A6895
:100A000042F008021A601A6822F0F002A16A0A4352
:100A10001A60616A5A6822F47F4242EA01225A60EF
:100A2000236813F0010F00F0B580082D00F0AE80B0
:100A30000C2D00F0A8804FF0B042136823F480130F
:100A4000A1680B4313606368B3F5803F00F0C48076
:100A5000B3F5041F00F0C5804FF0B0431A6822F4CC
:100A600080321A601A6822F400121A606368002B40
:100A700000F0C28000F0CAFE07464FF0B0431B688A
:100A800013F4003F40F0868000F0C0FEC01B6428D5
:100A9000F3D90320A9E2012E9BD1236A002B00F099
:100AA0009982A06A4FF0B0431B6813F0080F29D059
:100AB0004FF0B0431B6803F0F00398422AD9FFF7C8
:100AC000B9FE002840F088824FF0B0431A6842F027
:100AD00008021A601A6822F0F002A16A0A431A603A
:100AE000616A5A6822F47F4242EA01225A60FFF7A3
:100AF0004BFFBA4B1860BA4B186800F03DFE002857
:100B00008ED072E24FF0B043D3F894301B0903F05B
:100B1000F003D2E74FF0B0431A6842F008021A60BF
:100B20001A6822F0F002A16A0A431A60616A5A68E0
:100B300022F47F4242EA01225A60A06AFFF77AFE5D
:100B40000028D4D0012050E200F060FEC01B022833
:100B50007FF64CAF032048E24FF0B042136823F019
:100B60000103136000F052FE07464FF0B0431B68CC
:100B700013F0020F3FF454AF00F048FEC01B0228F0
:100B8000F3D9032031E2032E7FF455AF6368002BC5
:100B900000F02482236813F0020F56D0042D3DD0BC
:100BA0000C2D39D02369002B00F08A804FF0B04221
:100BB000136843F48073136000F028FE06464FF07C
:100BC000B0431B6813F4806F36D100F01FFE801B0A
:100BD0000228F4D9032008E2136843F48033136039
:100BE00044E74FF0B0431A6842F400121A601A68E2
:100BF00042F480321A6039E700F008FE07464FF0F1
:100C0000B0431B6813F4003FC4D000F0FFFDC01BCD
:100C10006428F4D90320E8E1022EC3D12369002B14
:100C200000F0DE8161694FF0B042536823F0FE436B
:100C300043EA0163536008E061694FF0B0425368D2
:100C400023F0FE4343EA01635360236813F0080F67
:100C50007ED0A369002B62D04FF0B043D3F894301C
:100C6000E16903F01002914211D003F00302022A5D
:100C700000F0B88113F0010F38D14FF0B042D2F834
:100C8000943023F01003E1690B43C2F894304FF025
:100C9000B042D2F8943043F00103C2F8943000F02F
:100CA000B5FD06464FF0B043D3F8943013F0020F71
:100CB0004ED100F0ABFD801B1128F3D9032094E145
:100CC0004FF0B042136823F48073136000F09EFD70
:100CD00006464FF0B0431B6813F4806FB5D000F0A8
:100CE00095FD801B0228F4D903207EE14FF0B0422D
:100CF000D2F8943023F00103C2F8943000F086FD5E
:100D000006464FF0B043D3F8943013F0020FB4D03E
:100D100000F07CFD801B1128F3D9032065E14FF022
:100D2000B042D2F8943023F00103C2F8943000F0BE
:100D30006DFD06464FF0B043D3F8943013F0020F28
:100D400006D000F063FD801B1128F3D903204CE18D
:100D5000236813F0040F00F0B880224B1B6813F4D3
:100D6000807F10D100F08EFC00F050FD06461D4B38
:100D70001B6813F4807F06D100F048FD801B022819
:100D8000F5D9032031E1E368002B68D0852B01D031
:100D9000052B07D14FF0B042D2F8903043F0040356
:100DA000C2F8903000F032FD06464FF0B042D2F863
:100DB000903043F00103C2F890304FF0B043D3F8C5
:100DC000903013F0020F0FD100F020FD801B41F294
:100DD00088339842F1D9032007E100BF08000020C2
:100DE0000400002000040058E368812B01D0852B0B
:100DF0001AD100F00BFD06464FF0B042D2F8903009
:100E000043F08003C2F890304FF0B043D3F89030F5
:100E100013F4006F59D100F0F9FC801B41F28833C4
:100E20009842F1D90320E0E000F0F0FC06464FF0D4
:100E3000B042D2F8903023F08003C2F890304FF0E7
:100E4000B043D3F8903013F4006F3ED000F0DEFCD6
:100E5000801B41F288339842F1D90320C5E000F0AD
:100E6000D5FC06464FF0B042D2F8903023F0800314
:100E7000C2F890304FF0B043D3F8903013F4006FC5
:100E800008D000F0C3FC801B41F288339842F1D9AE
:100E90000320AAE000F0BAFC06464FF0B042D2F8B8
:100EA000903023F00103C2F890304FF0B043D3F8F4
:100EB000903013F0020F08D000F0A8FC801B41F224
:100EC00088339842F1D903208FE0E36A002B00F0C9
:100ED0008B800C2D60D0022B16D04FF0B0421368DF
:100EE00023F08073136000F091FC04464FF0B04390
:100EF0001B6813F0007F48D14FF0B042D168414BDE
:100F00000B40D360002070E04FF0B042136823F034
:100F10008073136000F07AFC05464FF0B0431B6805
:100F200013F0007F2AD14FF0B042D3683649194000
:100F3000236B606B0343A06B43EA0023E06B034326
:100F4000206C0343606C03431943D160136843F082
:100F500080731360D36843F08053D36000F056FC75
:100F600004464FF0B0431B6813F0007F3ED100F001
:100F70004DFC001B0A28F4D9032036E000F046FCA3
:100F8000401B0A28C9D903202FE000F03FFC001BBA
:100F90000A28ABD9032028E0012B29D04FF0B04319
:100FA000DB6803F00301226B914223D103F070024E
:100FB000616B8A4220D103F4FE42A16BB2EB012F98
:100FC0001CD103F06043626C934219D100200CE005
:100FD00001207047012008E0012006E0012004E024
:100FE000012002E0012000E00020F8BD0020FCE725
:100FF0000120FAE70120F8E70120F6E70120F4E7F5
:101000000120F2E7FCFFFEEE8C80C111002800F009
:10101000048170B50C460546824B1B6803F007033C
:101020008B4227D32B6813F0020F39D12B6813F0B2
:10103000400F4DD12B6813F0040F65D12B6813F0CE
:10104000080F79D12B6813F0010F00F0C1806B6895
:10105000022B00F08B80032B00F09080002B40F0DF
:1010600095804FF0B042126812F0020F40F0948069
:101070000120D1E06B4A136823F007030B43136090
:1010800000F0C4FB0646674B1B6803F00703A3424E
:10109000C8D000F0BBFB801B0228F4D90320BBE0C2
:1010A000AB684FF0B0418A6822F0F00213438B60C6
:1010B00000F0ACFB06464FF0B0439B6813F4803F52
:1010C000B4D100F0A3FB801B0228F4D90320A3E0D5
:1010D00069694FF0B042D2F8083123F00F0343EAB8
:1010E0001113C2F8083100F091FB06464FF0B043EF
:1010F000D3F8083113F4803F9CD100F087FB801BAC
:101100000228F3D9032087E0EB684FF0B0418A68EA
:1011100022F4E06213438B6000F078FB06464FF048
:10112000B0439B6813F4003F88D100F06FFB801B35
:101130000228F4D903206FE029694FF0B042936888
:1011400023F4605343EAC103936000F05FFB06465B
:101150004FF0B0439B6813F4802F7FF473AF00F01F
:1011600055FB801B0228F3D9032055E04FF0B04215
:10117000126812F4003F0FD101204DE04FF0B04251
:10118000126812F0007F07D1012045E04FF0B04215
:10119000126812F4806F42D04FF0B0418A6822F09A
:1011A000030213438B6000F031FB06464FF0B0435F
:1011B0009B6803F00C036A68B3EB820F08D000F061
:1011C00025FB801B41F288339842EFD9032023E0AE
:1011D000144B1B6803F00703A34215D9114A136887
:1011E00023F007032343136000F010FB05460D4B6B
:1011F0001B6803F00703A34206D000F007FB401B67
:101200000228F4D9032007E0FFF7BEFB064B186065
:10121000064B186800F0B0FA70BD0120704701203D
:10122000FAE700BF0040005808000020040000203A
:1012300008B5FFF7A9FB4FF0B0439B68C3F3022347
:10124000024A52F82330D84008BD00BFB43B000822
:1012500008B5FFF799FB4FF0B0439B68C3F3C22377
:10126000024A52F82330D84008BD00BFB43B000802
:101270004FF0B041D1F88830020902F47F2223EA0E
:101280000203000100F47F200343C1F88830704757
:1012900070B50446036813F4803F40F0AA8000252F
:1012A000236813F0010F0AD062684FF0B041D1F803
:1012B000883023EA124392B21343C1F8883023687E
:1012C00013F0020F0AD0A2684FF0B041D1F8883075
:1012D00023EA124392B21343C1F88830236813F013
:1012E000200F09D023694FF0B041D1F8882022F4B3
:1012F00040621343C1F88830236813F4007F0CD098
:10130000216A4FF0B042D2F88830080C000423EA7A
:10131000000343EA0143C2F88830236813F4806F66
:101320000CD0616A4FF0B042D2F88830080C00044B
:1013300023EA000343EA0143C2F88830236813F428
:10134000006F0CD0A16A4FF0B042D2F88830080C80
:10135000000423EA000343EA0143C2F8883023680B
:1013600013F0400F40F09D80236813F0800F40F091
:101370009C80236813F4807F40F09B80236813F0E7
:10138000100F0ED0E3684FF0B041D1F8882022F45E
:1013900040721343C1F88830E368B3F5807F00F0F2
:1013A0008C80236813F4004F0FD0236B4FF0B041B3
:1013B000D1F8882022F040421343C1F88830236BD3
:1013C0001BB9CB6843F08073CB60236813F4804F64
:1013D0000DD0E36A4FF0B041D1F8882022F040529E
:1013E0001343C1F88830E36AB3F1005F6AD028463E
:1013F00070BD00F047F900F009FA0546344B1B6850
:1014000013F4807F06D100F001FA401B0228F5D9C1
:10141000032500E00025002D7FF442AF4FF0B043DC
:10142000D3F8903003F44073626B9A4224D04FF0AB
:10143000B043D3F8902022F44072D3F8901041F4D6
:101440008031C3F89010D3F8901021F48031C3F8A4
:101450009010C3F8902012F0020F0FD1002D7FF4EE
:101460001FAF636B4FF0B041D1F8902022F440726F
:101470001343C1F8903013E70022ECE700F0C6F9FF
:1014800006464FF0B043D3F8903013F0020FE5D189
:1014900000F0BCF9801B41F288339842F1D9032552
:1014A000DCE76069FFF7E4FE5EE7A069FFF7E0FEB6
:1014B0005FE7E069FFF7DCFE60E7CB6843F080732D
:1014C000CB606EE7CB6843F48033CB608FE700BF1F
:1014D0000004005870B5002369E085685E000324AD
:1014E000B44025EA0405CC68B4402C4384604568C8
:1014F00025EA0C054C68C4F300149C402C4344605E
:1015000066E0DD08083550F8254003F0070C4FEA87
:101510008C0C4FF00F0E0EFA0CFE24EA0E0E0C6926
:1015200004FA0CF444EA0E0440F8254067E0022473
:1015300000E0002404FA0EF42C430CF1020C4B4D95
:1015400045F82C404A4C2568D44325EA0206D1F8D8
:1015500004C01CF4801F01D042EA0506444D2E60F1
:101560006D6804EA0506D1F804C01CF4001F01D020
:1015700042EA05063E4D6E60D5F8805004EA050645
:10158000D1F804C01CF4803F01D042EA0506384D72
:10159000C5F88060D5F884502C404E6816F4003FA2
:1015A00001D042EA0504324AC2F8844001330A6895
:1015B00032FA03F458D04FF0010C0CFA03FC1CEA89
:1015C0000202F3D04C6804F00304013C012C84D9DE
:1015D0004C6804F00304032C0CD0C4685D004FF089
:1015E000030C0CFA05FC24EA0C0C8C68AC4044EAB1
:1015F0000C04C4604C6804F00304022C81D004681D
:101600004FEA430E4FF0030C0CFA0EFC24EA0C0CCC
:101610004C6804F0030404FA0EF444EA0C04046079
:101620004C6814F4403FC1D04FEA930C0CF1020512
:101630000E4C54F8255003F0030E4FEA8E0E07248B
:1016400004FA0EF425EA0405B0F1904F3FF471AFAF
:10165000084CA04206D004F58064A0423FF467AF76
:10166000072467E7012465E770BD00BF0000014063
:1016700000080058000400480AB181617047816287
:1016800070470000024A136843F480731360704788
:1016900000040058024B186800F4C060704700BF97
:1016A00000040058002808DB0901C9B200F16040BD
:1016B00000F5614080F80013704700F00F00090149
:1016C000C9B2014B1954704714ED00E000B500F0A9
:1016D0000700C0F1070CBCF1040F28BF4FF0040C49
:1016E000031D062B0FD9C31E4FF0FF3E0EFA0CF060
:1016F00021EA000199400EFA03FE22EA0E0241EAB5
:1017000002005DF804FB0023EEE70000074AD368FF
:1017100023F4E0631B041B0C000200F4E0600343AD
:1017200043F0BF6343F40033D360704700ED00E043
:1017300010B50446054BD868C0F30220FFF7C6FF7A
:1017400001462046FFF7AEFF10BD00BF00ED00E0F0
:101750000138B0F1807F0BD24FF0E0235861054A89
:10176000F02182F823100020986107221A61704747
:101770000120704700ED00E0114B1B780BB90120F0
:10178000704710B50446FFF7FFF80D4B1A784FF479
:101790007A73B3FBF2F3B0FBF3F0FFF7D9FF68B94C
:1017A0000F2C01D901200AE0002221464FF0FF3022
:1017B000FFF7BEFF034B1C60002000E0012010BDBE
:1017C000000000200400002010B50320FFF79EFF5A
:1017D000FFF7DAF8064B18600F20FFF7CDFF10B1C6
:1017E0000124204610BD0446FEF7EEFEF9E700BFD7
:1017F00008000020034B1B78034A11680B44136058
:10180000704700BF0000002068020020014B1868EC
:10181000704700BF6802002038B50446FFF7F6FFA6
:101820000546B4F1FF3F02D0044B1B781C44FFF780
:10183000EDFF401BA042FAD338BD00BF00000020DE
:10184000002800F08E8010B50446436A33B943681F
:10185000B3F5827F05D00023C36102E0002303615A
:10186000436194F85D30002B5AD0022384F85D3038
:101870002268136823F040031360E368B3F5E06F58
:1018800054D90022B3F5706F04D0B3F5E06F01D0E6
:101890000023A362636803F48273A16801F4044126
:1018A0000B43216901F002010B43616901F0010161
:1018B0000B43A16901F400710B43E16901F03801A8
:1018C0000B43216A01F080010B43A16A01F400512E
:1018D00020680B430360A36AB3F5005F29D0638BD4
:1018E00003F00403616A01F010010B43616B01F026
:1018F00008010B43E16801F470610B432168134355
:101900004B60A36AB3F5005F27D02268D36923F444
:101910000063D36100202066012384F85D3010BD90
:1019200084F85C302046FEF751FE9EE74FF480526B
:10193000A8E7236B2BB9E368B3F5E06F0AD902235C
:101940002363236B022BCAD121680B6843F4006325
:101950000B60C4E701232363F3E72368A28D1A61B8
:10196000D3E7012070470000074B1A6822F04002BD
:101970001A6040F4417018604FF4B8525A601A6807
:1019800042F040021A6070470000015830B583B041
:1019900000285DD00446837903F0FF050BB1032DC9
:1019A0000BD1002363712046FEF758FE294AD2F876
:1019B000903043F48053C2F8903085B1264B4FF4F9
:1019C00000629A6100252068FFF7CEFF0123237192
:1019D0000023A3600123A371284603B030BD022376
:1019E000A3714FF0B042D2F8943023F40043C2F810
:1019F00094301A4B1B68C3EBC303C3F34C436422FC
:101A000002FB03F3019314E00125A560124BD3F808
:101A1000902042F40042C3F890209A6842F4006299
:101A20009A604FF400629A61002DD3D1CBE7002B6E
:101A3000ECD0019B002BE7D0019B013B01934FF0C1
:101A4000B043D3F8943013F48043F0D00123EEE791
:101A50000125C1E7000800580004005808000020D4
:101A600030B4026A036A23F00103036244688369A5
:101A700023F4803323F073030D681D4322F0020228
:101A80008B681343154A904207D002F5E05290420A
:101A900003D0A2F58062904207D1026A22F00402CC
:101AA000026223F00803CA6813430C4A904207D02D
:101AB00002F5C052904203D002F58062904205D1F7
:101AC00024F440744A6922438C691443446085615C
:101AD0004A684263036230BC704700BF002C01407B
:101AE00030B4036A026A22F4807202624468C269F6
:101AF00022F4803222F073020D68154323F4007340
:101B00008A6843EA0223114A904207D002F5C05284
:101B100090420CD00E4A904211D108E0026A22F4A1
:101B20008062026223F40063CA6843EA022324F459
:101B300040544A6944EA02148A6944EA021444603F
:101B4000C5614A68C263036230BC7047002C014023
:101B50000048014030B4026A036A23F480530362F0
:101B60004468C36923F0807323F4E6430D6843EAB5
:101B7000052322F400528D6842EA05320B4DA8423B
:101B800007D005F5C055A84203D005F58065A842E9
:101B900004D124F480444D6944EA85144460C3614F
:101BA0004B680364026230BC704700BF002C0140E8
:101BB00030B4036A026A22F4803202624468426DE1
:101BC00022F4803222F070020D682A4323F400339D
:101BD0008D6843EA05430B4DA84207D005F5C05573
:101BE000A84203D005F58065A84204D124F48034CE
:101BF0004D6944EA0524446042654A68826503628F
:101C000030BC7047002C014030B4026A036A23F4F0
:101C1000801303624468436D23F0807323F4E04330
:101C20000D6843EA052322F400128D6842EA05524A
:101C30000B4DA84207D005F5C055A84203D005F5C5
:101C40008065A84204D124F480244D6944EA8524A7
:101C5000446043654B68C365026230BC704700BF97
:101C6000002C014010B4036A046A24F001040462E9
:101C70000D4CA04207D004F5E054A04203D0A4F5D7
:101C80008064A04203D1046A24F0040404628469DD
:101C900024F0F00C4CEA021223F00A03194382618B
:101CA000016210BC704700BF002C014010B4036AF1
:101CB000046A24F0100404620A4CA0420CD0846927
:101CC00024F4704C4CEA023223F0A00343EA0111E1
:101CD0008261016210BC7047046A24F0400404620F
:101CE000EDE700BF002C0140836823F4401323F08C
:101CF00070030B4343F00703836070477047000095
:101D000003681C4A904202D0B0F1804F03D123F007
:101D100070034A681343174A90420AD0B0F1804FCB
:101D200007D002F5C052904203D002F58062904283
:101D300003D123F44073CA68134323F080034A6934
:101D400013438A68C2620A6882620A4A904207D0D4
:101D500002F5C052904203D002F58062904201D158
:101D60000A690263026842F00402026001224261D1
:101D700003607047002C014060B310B5044690F832
:101D80003D3013B3022384F83D30214651F8040B53
:101D9000FFF7B6FF012384F8483084F83E3084F81A
:101DA0003F3084F8403084F8413084F8423084F881
:101DB000433084F8443084F8453084F8463084F861
:101DC000473084F83D30002010BD80F83C30FEF7ED
:101DD00053FCD7E70120704760B310B5044690F874
:101DE0003D3013B3022384F83D30214651F8040BF3
:101DF000FFF786FF012384F8483084F83E3084F8EA
:101E00003F3084F8403084F8413084F8423084F820
:101E1000433084F8443084F8453084F8463084F800
:101E2000473084F83D30002010BD80F83C30FFF78B
:101E300065FFD7E70120704730B4036A026A22F0D9
:101E4000100202624468826922F0807222F4E64243
:101E50000D6842EA052223F020038D6843EA05134A
:101E6000114DA84207D005F5C055A8420CD00F4D22
:101E7000A84211D108E0056A25F04005056223F06B
:101E80008003CD6843EA051324F440644D6944EAB5
:101E900085048D6944EA8504446082614A688263EE
:101EA000036230BC704700BF002C01400048014075
:101EB00038B590F83C30012B00F0958004460D4673
:101EC000012380F83C30142A00F28880DFE802F019
:101ED0000B8686861F868686348686864886868614
:101EE0005D86868671000068FFF7BAFD22689369F7
:101EF00043F0080393612268936923F0040393611C
:101F00002268936929690B439361002067E00068A8
:101F1000FFF792FF2268936943F40063936122689C
:101F2000936923F48063936122689369296943EA82
:101F300001239361002052E00068FFF7D1FD226881
:101F4000D36943F00803D3612268D36923F0040303
:101F5000D3612268D36929690B43D36100203EE035
:101F60000068FFF7F7FD2268D36943F40063D3618B
:101F70002268D36923F48063D3612268D369296915
:101F800043EA0123D361002029E00068FFF710FE37
:101F90002268536D43F0080353652268536D23F0A4
:101FA000040353652268536D29690B435365002070
:101FB00015E00068FFF728FE2268536D43F40063C4
:101FC00053652268536D23F4806353652268536D13
:101FD000296943EA01235365002000E00120002322
:101FE00084F83C3038BD0220FCE710B4846824F447
:101FF0007F4C42EA03220A4342EA0C02826010BC90
:102000007047000090F83C30012B76D010B50446A4
:10201000012380F83C30022380F83D30026890684C
:10202000374B034093600B68602B4CD023D8402B78
:1020300054D011D8202B03D00AD80BB1102B05D1C6
:1020400019462068FFF750FE002028E0012026E016
:10205000302BF5D0012022E0502B0AD1CA68496804
:102060002068FFF7FFFD50212068FFF73DFE0020AC
:1020700015E0012013E0B3F5805F3AD0B3F5005FBF
:1020800014D0702B37D1CB684A6889682068FFF775
:10209000ACFF2268936843F077039360002001232C
:1020A00084F83D30002384F83C3010BDCB684A688A
:1020B00089682068FFF799FF2268936843F480439A
:1020C00093600020EBE7CA6849682068FFF7EEFDDF
:1020D00060212068FFF708FE0020E0E7CA68496831
:1020E0002068FFF7BFFD40212068FFF7FDFD0020BD
:1020F000D5E70020D3E70120D1E70220704700BFD9
:102100008800CEFF90F83C20012A2BD030B4034643
:10211000012280F83C20022280F83D2000684268BD
:102120008468114DA84218D022F070020D682A432D
:1021300042601A680C48824202D0B2F1804F04D14A
:1021400024F08004896821439160012283F83D20B6
:10215000002083F83C0030BC704722F470024D68C8
:102160002A43E1E702207047002C0140026852E850
:10217000003F23F4907342E800310029F6D1026851
:1021800002F1080353E8003F23F0805323F00103DA
:10219000083242E800310029F1D1C36E012B06D08C
:1021A0002023C0F88C300023C36643677047026861
:1021B00052E8003F23F0100342E800310029F6D135
:1021C000EEE7000070B50446836802691343426974
:1021D0001343C2691343016808689D4A02401A43C9
:1021E0000A602268536823F44053E1680B4353604C
:1021F000A1692268974B9A4201D0236A19439368D8
:1022000023F06E4323F430630B4393602268D36A58
:1022100023F00F03616A0B43D36223688E4A934213
:102220001CD08E4A934231D08A4A93424BD010221E
:1022300088498B4268D0E069B0F5004F00F0A58076
:10224000082A00F21F81DFE812F0D300F500D10068
:102250001D01F8001D011D011D01FB004FF0B042E2
:10226000D2F8882002F0030242F44032A2F5403254
:10227000032A09D8DFE802F002043C060122D7E76E
:102280000422D5E70822D3E71022D1E74FF0B0426D
:10229000D2F8882002F00C0242F44022A2F540223B
:1022A0000C2A0ED8DFE802F0070D0D0D090D0D0DFB
:1022B000260D0D0D0B000022BAE70422B8E7082214
:1022C000B6E71022B4E74FF0B042D2F8882002F40B
:1022D0004062B2F5006F0FD005D87AB1B2F5806FC9
:1022E0000ED10422A4E7B2F5406F0BD108229FE77C
:1022F00002229DE702229BE7022299E7002297E74C
:10230000102295E7102293E7082A00F29C80DFE86C
:1023100002F0089A3A9A379A9A9A05004FF40040C8
:1023200004E0FEF785FF002800F08F80626A4C4BC6
:1023300033F81220B0FBF2F3656805EB45019942D2
:1023400000F29480B3EB053F00F292800026334602
:102350003146FDF745FF090241EA106100026B08B2
:10236000C0182A46334641F10001FDF739FFA0F5B8
:1023700040723C4B9A427DD82368D860304650E08A
:10238000FEF77AFACFE73848D0E7082A74D8DFE8B2
:1023900002F0072705732A7373730B00324803E0BA
:1023A000FEF746FF002869D0626A2D4B33F81230E1
:1023B000B0FBF3F06268530803EB4003B3FBF2F3A6
:1023C000A3F110014FF6EF72914259D89AB222F060
:1023D0000F02C3F3420313432268D360002020E0BE
:1023E000FEF736FFDEE7FEF747FADBE71E4803E0BD
:1023F000FEF71EFF002847D0626A194B33F81230EF
:10240000B0FBF3F0636800EB5300B0FBF3F0A0F116
:1024100010024FF6EF739A4238D8236880B2D86022
:1024200000200123A4F86A30A4F868300023636711
:10243000A36770BDFEF70CFFDCE7FEF71DFAD9E7D6
:102440004FF40040D8E70120EBE70020E9E700BFA8
:10245000F369FFCF00800040003801400044004095
:102460004C3B0008FFFC0F000024F4000120D8E7DB
:102470000120D6E70120D4E70120D2E70020D0E7F1
:102480000120CEE70120CCE70020CAE70120C8E701
:10249000836A13F0080F06D00268536823F40043E0
:1024A000816B0B435360836A13F0010F06D00268FF
:1024B000536823F40033C16A0B435360836A13F0FB
:1024C000020F06D00268536823F48033016B0B437C
:1024D0005360836A13F0040F06D00268536823F434
:1024E0008023416B0B435360836A13F0100F06D0B7
:1024F0000268936823F48053C16B0B439360836A33
:1025000013F0200F06D00268936823F40053016C87
:102510000B439360836A13F0400F0AD0026853683C
:1025200023F48013416C0B435360436CB3F5801F5D
:102530000BD0836A13F0800F06D00268536823F42F
:102540000023C16C0B43536070470268536823F447
:10255000C003816C0B435360EBE72DE9F84305465C
:102560000E4617469946DDF820802B68DC6936EA6E
:1025700004040CBF01240024BC4236D1B8F1FF3F53
:10258000F3D0FFF743F9A0EB0900404530D8B8F18C
:10259000000F2FD02B681A6812F0040FE5D0802EA0
:1025A000E3D0402EE1D0DA6912F0080F11D1DA69D8
:1025B00012F4006FD9D04FF400621A622846FFF778
:1025C000D5FD2023C5F89030002385F88430032002
:1025D0000CE008241C622846FFF7C8FDC5F89040AF
:1025E000002385F88430012000E00020BDE8F88356
:1025F0000320FBE70320F9E72DE9F04182B01E46F6
:10260000D0F88830202B60D104460D469046002932
:102610005FD00AB9012059E00023C0F8903021238F
:10262000C0F88830FFF7F2F80746A4F85480A4F801
:102630005680A368B3F5805F02D04FF000081CE01D
:10264000236973B34FF0000817E02023C4F88830E3
:1026500003203BE038F8023B2268C3F3080393628F
:10266000D4F8883003F02103212B34D1B4F856205C
:1026700092B2013A92B2A4F85620B4F856309BB206
:1026800093B100963B46002280212046FFF765FF6C
:102690000028DAD1002DDDD015F8012B23689A62CD
:1026A000DEE7A8460025E8E700963B4600224021E9
:1026B0002046FFF752FF18B92023C4F8883005E000
:1026C0002023C4F88830032000E0022002B0BDE8D7
:1026D000F0810120FAE70120F8E730B583B0044625
:1026E0000023C0F89030FFF791F805462268126881
:1026F00012F0080F10D123681B6813F0040F28D1C3
:102700002023C4F88830C4F88C300020E0662067AD
:1027100084F8840003B030BD6FF07E43009303461D
:1027200000224FF400112046FFF717FF0028E2D0E7
:10273000226852E8003F23F0800342E8003100297C
:10274000F6D12023C4F88830002384F88430032095
:10275000E0E76FF07E4300932B4600224FF48001A8
:102760002046FFF7FAFE0028CAD0226852E8003F50
:1027700023F4907342E800310029F6D1226802F177
:10278000080353E8003F23F00103083242E8003118
:102790000029F3D12023C4F88C30002384F884303E
:1027A0000320B7E778B310B50446D0F888300BB3F0
:1027B0002423C4F888302268136823F001031360CF
:1027C000A36AE3B92046FFF7FDFC012811D0226877
:1027D000536823F4904353602268936823F02A03DC
:1027E00093602268136843F0010313602046FFF7EB
:1027F00074FF10BD80F88430FDF778FFD8E72046DD
:10280000FFF746FEDEE7012070470000436E2BB95C
:102810000123A0F86A30A0F86830704730B403682C
:102820009A68C2F342629968490F094D6B5CDB00FC
:10283000084C615C93FBF1F3A0F86A30AB5CDB0001
:10284000A25C93FBF2F3A0F8683030BC704700BF85
:102850006C3B0008643B000890F88430012B18D0D2
:10286000012380F884302423C0F8883003681A6874
:10287000196821F00101196022F00052002343661B
:1028800001680A602022C0F8882080F88430184649
:1028900070470220704738B590F88430012B1DD066
:1028A0000446012380F884302423C0F8883003686C
:1028B0001D681A6822F001021A600268936823F00A
:1028C000604319439160FFF7A1FF23681D60202337
:1028D000C4F88830002084F8840038BD0220FCE76A
:1028E00038B590F88430012B1DD00446012380F8C0
:1028F00084302423C0F8883003681D681A6822F0E9
:1029000001021A600268936823F0606319439160C2
:10291000FFF77CFF23681D602023C4F88830002067
:1029200084F8840038BD0220FCE7704710B50346E8
:102930000C4A0D490D48006840B10C48006803443A
:10294000521A934206D8094A136010BD0748084C32
:102950000460F2E700F054F80C2303604FF0FF30FE
:10296000F3E700BF00800020000400006C0200209C
:10297000C003002070B50C461646002506E0AFF3F4
:102980000080214601F8010B01350C46B542F6DB0B
:10299000304670BD4FF0FF3070474FF400534B602E
:1029A0000020704701207047002070470D48854681
:1029B000FFF7BBFF0C480D490D4A002302E0D45835
:1029C000C4500433C4188C42F9D30A4A0A4C002379
:1029D00001E013600432A242FBD300F017F8FDF7C8
:1029E000BDFDFEE700800020000000206800002000
:1029F000603C000868000020C0030020FEE70000E3
:102A0000014B1868704700BF0C00002070B50D4DD9
:102A10000D4C641BA4100026A64209D10B4D0C4C92
:102A200001F072F8641BA4100026A64205D170BD07
:102A300055F8043B98470136EEE755F8043B9847B4
:102A40000136F2E7503C0008503C0008503C0008BA
:102A5000543C00080FB407B5064904AB086853F8A6
:102A6000042B8168019300F02FF803B05DF804EBAC
:102A700004B070470C0000209368013B002B10B499
:102A8000936007DA9469A34201DB0A2902D110BCE2
:102A900000F048BC1368581C10601970084610BC40
:102AA0007047F8B506460F461446D518AC4201D11A
:102AB000002007E014F8011B3A463046FFF7DCFF20
:102AC000431CF3D1F8BD00002DE9F04F0D469DB039
:102AD00014469846064618B1036A0BB900F084FB09
:102AE0006B6ED90705D4AB899A0502D4A86D00F0A6
:102AF00062F9AB891B0701D52B699BB92946304682
:102B000000F002F970B16B6EDC0704D54FF0FF30B6
:102B10001DB0BDE8F08FAB899805F7D4A86D00F023
:102B20004BF9F3E70023099320238DF82930CDF8E2
:102B30000C803023DFF8AC818DF82A304FF001098A
:102B400023469A4613F8012B0AB1252AF9D1BAEB8C
:102B5000040B0BD05B46224629463046FFF7A1FF07
:102B6000013000F0A780099A5A4409929AF800307F
:102B7000002B00F09F8000234FF0FF32CDE90523AA
:102B80000AF1010A049307938DF853301A935446BF
:102B9000052214F8011B5348FDF7D2FA049AD8B95C
:102BA000D10644BF20238DF85330130744BF2B2395
:102BB0008DF853309AF800302A2B15D0079A5446D6
:102BC00000204FF00A0C214611F8013B303B092B45
:102BD0004BD9B0B1079214E0A0EB080309FA03F354
:102BE00013430493A246D2E7039B191D1B6803916C
:102BF000002BBBBF5B4242F0020207930793B8BFB2
:102C0000049223782E2B0AD163782A2B32D1039B8E
:102C10001A1D1B68039243EAE37302340593DFF83D
:102C2000C8A0217803225046FDF78AFA38B1049BE8
:102C3000A0EB0A004022824013430134049314F8AD
:102C4000011B2A488DF828100622FDF779FA002882
:102C50003FD0274B1BBB039B073323F007030833ED
:102C60000393099B3B4409936AE70CFB02320C4631
:102C70000120A8E700230134059319464FF00A0C00
:102C8000204610F8012B303A092A03D9002BC6D070
:102C90000591C4E70CFB012104460123F0E703ABD7
:102CA00000932A46134B04A93046AFF30080074631
:102CB000781CD6D16B6ED90705D4AB899A0502D49E
:102CC000A86D00F079F8AB895B063FF51FAF099856
:102CD0001EE703AB00932A46064B04A9304600F0DA
:102CE000D9F8E4E7143C00081A3C00081E3C000830
:102CF00000000000A32A000802440346934200D1CA
:102D0000704703F8011BF9E738B5294B05461868E9
:102D10000C4618B1036A0BB900F066FAB4F90C302E
:102D2000190722D4DA0607D409222A6043F04003A7
:102D3000A3814FF0FF3033E0580712D5616B41B1EA
:102D400004F14403994202D0284600F029FB0023F5
:102D50006363A38923F02403A381002363602369B1
:102D60002360A38943F00803A38123694BB9A38996
:102D700003F42073B3F5007F03D02146284600F00A
:102D800091FBB4F90C3013F001020AD00022A260CA
:102D900062695242A261226942B913F08000C5D132
:102DA00038BD990758BF6269A260F4E70020F7E7D1
:102DB0000C0000207047704770472DE9F047164619
:102DC00098468A680B69DDF820909342B8BF134695
:102DD000336091F8432007460C460AB10133336053
:102DE0002368990642BF336802333360256815F0C3
:102DF000060506D104F1190AE36832689B1AAB4252
:102E000026DC94F843302268003B18BF0123920669
:102E10002BD404F1430241463846C84701301ED046
:102E20002368226903F00603042B02BFE5683368B8
:102E3000ED1AA3680CBF25EAE57500259342C4BFCF
:102E40009B1AED1800261A34B5421AD1002008E06A
:102E50000123524641463846C847013003D14FF05E
:102E6000FF30BDE8F0870135C6E7E1185A1C302075
:102E700081F84300224494F8451082F8431002334D
:102E8000C7E70123224641463846C8470130E6D00D
:102E90000136D9E72DE9FF470F7E0C9E782F91462A
:102EA00080460C469A4601F1430207D8622F0AD8A1
:102EB000002F00F0D180582F00F0B88004F14206B6
:102EC00084F842703AE0A7F16303152BF6D801A10C
:102ED00051F823F02D2F0008412F0008BD2E0008C7
:102EE000BD2E0008BD2E0008BD2E0008412F000891
:102EF000BD2E0008BD2E0008BD2E0008BD2E000806
:102F00003F3000086B2F0008F92F0008BD2E000885
:102F1000BD2E000861300008BD2E00086B2F000890
:102F2000BD2E0008BD2E00080130000833681A1DB0
:102F30001B68326004F1420684F8423001239CE0B1
:102F400033682068191D3160060601D51D6803E04D
:102F50004506FBD5B3F90050002D03DA2D236D4251
:102F600084F8433058480A2311E021683368080682
:102F700053F8045B02D4490648BFADB26F2F5248E4
:102F8000336014BF0A230823002184F843106668C5
:102F9000A660002E05DB21682E4321F0040121608C
:102FA0004BD01646B5FBF3F103FB1157C75D06F88E
:102FB000017D2F46BB420D46F4D9082B0BD1236867
:102FC000DF0708D5236961689942DEBF302306F820
:102FD000013C06F1FF36921B2261CDF800A04B4662
:102FE00003AA21464046FFF7E8FE01304AD14FF0E0
:102FF000FF3004B0BDE8F087236843F0200323606E
:103000003248782784F84570236831681F0651F8E4
:10301000045B02D45F0648BFADB23160D90744BF3C
:1030200043F0200323601DB11023ADE72648E9E7F4
:10303000236823F020032360F6E71646BDE73368D4
:1030400025686169181D30602E061B6801D519605E
:1030500002E06806FBD51980002323611646BCE711
:1030600033681A1D32601E68626800213046FDF721
:1030700067F808B1801B606063682361002384F8EF
:103080004330AAE72369324649464046D0470130DB
:10309000ADD023689B0713D4E068039B9842B8BF68
:1030A0001846A6E70123324649464046D04701303C
:1030B0009DD00135E36803995B1AAB42F2DCEBE784
:1030C000002504F11906F5E7253C0008363C000808
:1030D000002310B50446C0E90033C0E9043383601F
:1030E00081814366C2818361194608225C30FFF703
:1030F00003FE0D4B63620D4BA3620D4BE3620D4B60
:1031000023630D4B24629C4206D003F16802944273
:1031100002D0D0339C4205D104F15800BDE81040E4
:10312000FFF748BE10BD00BF193200083B3200084F
:10313000733200089732000874020020024A0349E3
:10314000034800F0D1B800BF5C0000201D36000825
:103150001000002041680C4B994210B5044601D084
:1031600000F05CFAA168094B994202D0204600F0B9
:1031700055FAE168064B994204D02046BDE810405C
:1031800000F04CBA10BD00BF74020020DC02002029
:103190004403002010B50B4B0B4C0C4A1A60204620
:1031A00000220421FFF794FF04F1680001220921A5
:1031B000FFF78EFF04F1D0000222BDE8104012217B
:1031C000FFF786BFAC030020740200203D310008E9
:1031D0000148FFF7F0BD00BF710200200148FFF772
:1031E000EBBD00BF7102002010B50446FFF7F0FFF1
:1031F000236A1BB1BDE81040FFF7F0BF044B236208
:10320000044B1B68002BF5D1FFF7C4FFF2E700BFAA
:1032100055310008AC03002010B50C46B1F90E1072
:1032200000F050F80028ABBF636DA3891B1823F48E
:103230008053ACBF6365A38110BD2DE9F0411F46EB
:103240008B89DB0505460C46164605D5B1F90E10EF
:103250000223002200F024F8A389B4F90E1023F40D
:103260008053A38132463B462846BDE8F04100F03A
:10327000E1B810B50C46B1F90E1000F011F8431C7E
:10328000A38915BF606523F4805343F48053A38161
:1032900018BFA38110BDB1F90E1000F089BA00006B
:1032A00038B5074D04460846114600222A601A46E2
:1032B000FFF77AFB431C02D12B6803B1236038BDB2
:1032C000B803002038B5074D0446084611460022D1
:1032D0002A601A46FFF74EFB431C02D12B6803B14C
:1032E000236038BDB80300202DE9F843074688461F
:1032F00014460026D4E90195B9F1010905D52468E1
:10330000002CF7D13046BDE8F883AB89012B07D9F3
:10331000B5F90E30013303D029463846C04706437D
:103320006835E9E7F8B50E461446054618B1036A54
:103330000BB9FFF759FFA369A360A3891A0701D549
:10334000236943B921462846FFF7DEFC18B14FF048
:10335000FF373846F8BD23682269981A6369F6B2C8
:103360008342374605DC2146284600F057F90028FD
:10337000EDD1A368013BA36023685A1C22601E7034
:103380006269431C9A4204D0A389DB07E1D50A2E67
:10339000DFD12146284600F041F90028D9D0D6E7F0
:1033A00038B50546002941D051F8043C0C1F002BCC
:1033B000B8BFE41800F01EFA1D4A136833B9636001
:1033C00014602846BDE8384000F01ABAA34208D974
:1033D000206821188B4201BF19685B6809182160B9
:1033E000EDE71A465B680BB1A342FAD91168501891
:1033F000A0420BD120680144501883421160E0D1F3
:1034000018685B68536008441060DAE702D90C233F
:103410002B60D6E7206821188B4204BF19685B68CF
:10342000636004BF091821605460CAE738BD00BF5B
:10343000B403002038B5074D044608461146002263
:103440002A601A46FDF7A8F8431C02D12B6803B185
:10345000236038BDB803002070B50C46B1F90E10DA
:10346000002996B015461E460DDAA38913F0800F89
:103470004FF0000114BF40234FF4806300203160FF
:103480002B6016B070BD6A4600F0A2F90028ECDB94
:10349000019901F47041A1F50053594259414FF48B
:1034A0008063EBE78B89F7B59D0706460C4607D589
:1034B00004F14703236023610123636103B0F0BD7E
:1034C00001AB6A46FFF7C8FF009F05463946304604
:1034D00000F0EEF848B9B4F90C309A05EED423F0B8
:1034E000030343F00203A381E2E7A389206043F0D2
:1034F0008003A381019BC4E904075BB1B4F90E10FA
:10350000304600F083F928B1A38923F0030343F088
:103510000103A381A3891D43A581CFE7B1F90C2045
:10352000F8B5160705460C4654D44B68002B02DC50
:103530000B6C002B48DDE66A002E45D0002312F408
:1035400080522F68216A2B6030D0626DA3895907A1
:1035500005D56368D21A636B0BB1236CD21A0023B2
:10356000E66A216A2846B047431CA38906D1296828
:103570001D292BD8284ACA40D60727D500226260C9
:10358000D9042269226004D5421C01D12B6803B9F9
:103590006065616B2F60B9B104F14403994202D0B8
:1035A0002846FFF7FDFE002363630DE00123284654
:1035B000B0470246501CC9D12B68002BC6D01D2B2A
:1035C00001D0162B1DD12F60002021E043F04003D5
:1035D0001BB21AE00F69002FF6D093070E6808BFE0
:1035E0004B690F6018BF0023F61B8B60002EEBDDCC
:1035F000216AD4F828C033463A462846E0470028D6
:1036000007DCB4F90C3043F04003A3814FF0FF30E6
:10361000F8BD0744361AE9E70100402038B50B69C8
:1036200005460C4613B90025284638BD18B1036A73
:103630000BB9FFF7D9FDB4F90C30002BF3D0626E53
:10364000D00704D4990502D4A06DFFF7B4FB284637
:103650002146FFF763FF636EDA070546E4D4A389CA
:103660009B05E1D4A06DFFF7A7FBDDE770B50F4E1A
:103670000C463168054611B900F0D8F83060214693
:10368000284600F0D3F8431C03D14FF0FF34204606
:1036900070BDC41C24F00304A042F8D0211A2846AF
:1036A00000F0C4F80130F2D1EFE700BFB003002012
:1036B0002DE9F843CD1C25F0030508350C2D38BF46
:1036C0000C25002D064601DBA94204D90C233360EA
:1036D0000020BDE8F883DFF8D48000F08BF8D8F83C
:1036E00000301C4644BB29463046FFF7BFFF431C51
:1036F000044658D1D8F800402746002F43D1002C6B
:103700004BD023683946304604EB030900F08EF8AD
:10371000814542D121686D1A29463046FFF7A6FF40
:1037200001303AD023682B442360D8F800305A681F
:1037300062BBC8F800700FE02268521B20D40B2A2D
:1037400017D96119A342256018BF5960636808BF83
:10375000C8F8001062514B60304600F051F804F197
:103760000B00231D20F00700C21A1CBF1B1AA35018
:10377000AFE76268A3420CBFC8F800205A60EBE7CD
:1037800023466468AEE73C467F68B6E71A465B6846
:10379000A342FBD100235360DEE70C2333603046A5
:1037A00000F02EF894E70560D6E700BFB4030020D0
:1037B00038B5064D0023044608462B60FFF7EAF8AB
:1037C000431C02D12B6803B1236038BDB80300202D
:1037D00038B5074D00230446084611462B60FFF715
:1037E000DCF8431C02D12B6803B1236038BD00BF55
:1037F000B80300200148FFF7DEBA00BF70020020C6
:103800000148FFF7D9BA00BF7002002038B5064D55
:103810000023044608462B60FFF7C4F8431C02D17E
:103820002B6803B1236038BDB803002038B5064DBE
:103830000023044608462B60FFF778F8431C02D1AA
:103840002B6803B1236038BDB80300202DE9F04791
:10385000089D0E4604460F46002B4AD194468C45DF
:10386000B2FA82F260D942B1C2F12003974020FA45
:1038700003F30CFA02FC1F4394404FEA1C4E1FFA5C
:103880008CF6B7FBFEF1230C0EFB117743EA0743DE
:1038900001FB06F098420AD91CEB030301F1FF3744
:1038A00080F01581984240F21281023963441B1A5C
:1038B000A4B2B3FBFEF00EFB103344EA034400FB5A
:1038C00006F6A6420AD91CEB040400F1FF3380F08F
:1038D0000081A64240F2FD806444023840EA014083
:1038E000A41B00211DB1D4400023C5E90043BDE85D
:1038F000F0878B4205D90DB1C5E9000100210846CA
:10390000F5E7B3FA83F1002946D1B34202D38242EC
:1039100000F2F580841A66EB030201201746002DA1
:10392000E5D0C5E90047E2E7002A40F09380A1EB2B
:103930000C034FEA1C471FFA8CFE0121B3FBF7F67C
:1039400007FB1630230C43EA00430EFB06F09842B7
:1039500008D91CEB030306F1FF3802D2984200F2AB
:10396000D08046461B1AA4B2B3FBF7F007FB103316
:1039700044EA03440EFB00FEA64508D91CEB0404F0
:1039800000F1FF3302D2A64500F2B6801846A4EB40
:103990000E0440EA0640A5E7C1F120078B4022FA59
:1039A00007FC4CEA030C06FA01FE20FA07F426FA9B
:1039B00007F344EA0E0400FA01F84FEA1C404FEA0C
:1039C0001449B3FBF0FE1FFA8CF600FB1E3349EAE4
:1039D00003430EFB06F9994502FA01F20BD91CEBE1
:1039E00003030EF1FF3A80F08580994540F2828012
:1039F000AEF1020E6344A3EB0909A4B2B9FBF0F3E4
:103A000000FB139944EA094403FB06F6A64208D9D1
:103A10001CEB040403F1FF3068D2A64266D9023BD6
:103A2000644443EA0E40A41BA0FB02E6B442734682
:103A3000B14652D34FD05DB1B8EB030264EB090439
:103A400004FA07F722FA01F31F43CC40C5E90074DA
:103A500000214CE7C2F1200120FA01F30CFA02FC2C
:103A600026FA01F1964033434FEA1C471FFA8CFEB9
:103A7000B1FBF7F007FB1016190C41EA064100FBF9
:103A80000EF68E4204FA02F408D91CEB010100F193
:103A9000FF382DD28E422BD902386144891B9BB24C
:103AA000B1FBF7F607FB161143EA014306FB0EF1E3
:103AB000994208D91CEB030306F1FF3814D299424E
:103AC00012D9023E63445B1A46EA004136E73946A2
:103AD000EDE6184602E7F045ADD2BEEB020366EB19
:103AE0000C060138B146A6E74646ECE7034698E7E0
:103AF0004046D3E7D6467EE76444023847E70846A7
:103B00000DE7023E63442DE7F8B500BFF8BC08BCE2
:103B10009E467047F8B500BFF8BC08BC9E4670478B
:103B2000120024003000000006000C00100000000D
:103B300000000000010000000200000053746172E8
:103B400074696E672075702E2E2E00000100020031
:103B50000400060008000A000C00100020004000CD
:103B600080000001080402040801010101010103B1
:103B700007010000A0860100400D0300801A060026
:103B800000350C0040420F0080841E0000093D00FB
:103B900000127A000024F40000366E010048E801AB
:103BA000006CDC02000000000000000000000000CB
:103BB0000000000000000000000000000000000005
:103BC00000000000010000000200000003000000EF
:103BD00004000000010000000300000005000000D8
:103BE0000100000001000000060000000A000000C3
:103BF0002000000002000000040000000800000097
:103C000010000000400000008000000000010000E3
:103C100000020000232D302B2000686C4C006566EC
:103C2000674546470030313233343536373839410D
:103C30004243444546003031323334353637383923
:083C4000616263646566000027
:083C4800F8C4FF7F0100000039
:083C50007D02000800000000E5
:083C5800550200080000000005
:103C6000010000001000000000093D0010000020CD
:103C70000000000074020020DC0200204403002049
:103C80000000000000000000000000000000000034
:103C90000000000000000000000000000000000024
:103CA0000000000000000000000000000000000014
:103CB0000000000000000000000000000000000004
:083CC000030000007402002063
:04000005080029AD19
:00000001FF
